:020000040000FA
:100000000C945E000C9486000C9486000C94860080
:100010000C9486000C9486000C9486000C94860048
:100020000C9486000C9486000C9486000C94860038
:100030000C9486000C9486000C9486000C94860028
:100040000C9427010C9486000C9486000C94860076
:100050000C9486000C9486000C9486000C94860008
:100060000C9486000C9486000000000024002700F9
:100070002A0000000000250028002B0004040404CE
:100080000404040402020202020203030303030342
:10009000010204081020408001020408102001021F
:1000A00004081020000000080002010000030407FB
:1000B000000000000000000012025B0211241FBEBD
:1000C000CFEFD8E0DEBFCDBF21E0ACE1B1E001C0B1
:1000D0001D92A033B207E1F711E0A0E0B1E0E0E447
:1000E000F9E002C005900D92AC31B107D9F710E0EC
:1000F000CDE5D0E004C02197FE010E949B02CC35E3
:10010000D107C9F70E9471010C9493040C9400006C
:10011000E1EBF0E02491EDE9F0E09491E9E8F0E022
:10012000E491EE23C9F0222339F0233001F1A8F441
:10013000213019F1223029F1F0E0EE0FFF1FEE58C7
:10014000FF4FA591B4912FB7F894EC91811126C07F
:1001500090959E239C932FBF08952730A9F02830B7
:10016000C9F0243049F7209180002F7D03C02091F1
:1001700080002F7720938000DFCF24B52F7724BD18
:10018000DBCF24B52F7DFBCF2091B0002F772093BC
:10019000B000D2CF2091B0002F7DF9CF9E2BDACFC7
:1001A0003FB7F8948091280190912901A0912A01EC
:1001B000B0912B0126B5A89B05C02F3F19F00196E1
:1001C000A11DB11D3FBFBA2FA92F982F8827BC01B1
:1001D000CD01620F711D811D911D42E0660F771FD9
:1001E000881F991F4A95D1F708958F929F92AF92D9
:1001F000BF92CF92DF92EF92FF924B015C010E947F
:10020000D0006B017C010E94D0006C197D098E0921
:100210009F09683E734081059105A8F321E0821A89
:100220009108A108B10888EEC80E83E0D81EE11C31
:10023000F11C81149104A104B10429F7FF90EF90FF
:10024000DF90CF90BF90AF909F908F9008951F92B6
:100250000F920FB60F9211242F933F938F939F937A
:10026000AF93BF938091240190912501A091260125
:10027000B09127013091230123E0230F2D3758F54A
:100280000196A11DB11D2093230180932401909319
:100290002501A0932601B093270180912801909118
:1002A0002901A0912A01B0912B010196A11DB11D38
:1002B0008093280190932901A0932A01B0932B01E8
:1002C000BF91AF919F918F913F912F910F900FBE52
:1002D0000F901F90189526E8230F0296A11DB11DBF
:1002E000D2CF789484B5826084BD84B5816084BDAA
:1002F00085B5826085BD85B5816085BD80916E00C4
:10030000816080936E0010928100809181008260F4
:100310008093810080918100816080938100809131
:1003200080008160809380008091B1008460809320
:10033000B1008091B00081608093B00080917A001C
:10034000846080937A0080917A00826080937A0042
:1003500080917A00816080937A0080917A00806831
:1003600080937A001092C100EDE9F0E02491E9E871
:10037000F0E08491882399F090E0880F991FFC01A8
:10038000E859FF4FA591B491FC01EE58FF4F8591BC
:1003900094918FB7F894EC91E22BEC938FBFD0E05F
:1003A000C0E08091210190912201C817D90738F04F
:1003B000C0E0D0E02097F1F30E940000FBCF8091D5
:1003C0001D0190911E01FC01EC0FFD1F009721F40F
:1003D00010921C01ECE1F1E020812E32A1F481E0C9
:1003E0000E9488006AE070E080E090E00E94F500E2
:1003F00080E00E9488006AE070E080E090E00E9467
:10040000F5002196CECF892B11F410921C0180812A
:100410008D3289F781E00E9488006EE170E080E013
:1004200090E0E4CF10921E0110921D011092200165
:1004300010921F01109222011092210166E170E0DA
:1004400090E080E00E94C603009701F190931E01A6
:1004500080931D0125E130E03093200120931F019E
:100460002091210130912201232B11F4FC011082F3
:1004700085E190E0909322018093210166E071E094
:1004800080911D0190911E010C948C0480911D019E
:1004900090911E01009711F00E943D0310921E01E1
:1004A00010921D0110922201109221011092200140
:1004B00010921F01089580911D0190911E010097D7
:1004C00011F00C943D0308952F923F924F925F924A
:1004D0006F927F928F929F92AF92BF92CF92DF9254
:1004E000EF92FF920F931F93CF93DF93CDB7DEB7B9
:1004F000CA1BDB0B0FB6F894DEBF0FBECDBF09944D
:100500002A88398848885F846E847D848C849B84A3
:10051000AA84B984C884DF80EE80FD800C811B81B1
:10052000AA81B981CE0FD11D0FB6F894DEBF0FBEE0
:10053000CDBFED010895EE0FFF1F0590F491E02D62
:1005400009940F931F93CF93DF938230910510F49A
:1005500082E090E0E0912E01F0912F0130E020E068
:10056000B0E0A0E0309799F42115310509F44AC0B4
:10057000281B390B24303105D8F58A819B81611500
:10058000710589F1FB0193838283FE0111C04081D3
:1005900051810281138148175907E0F04817590724
:1005A00099F4109761F012960C93129713961C937E
:1005B0003296CF01DF91CF911F910F910895009353
:1005C0002E0110932F01F4CF2115310551F0421760
:1005D000530738F0A901DB019A01BD01DF01F801E1
:1005E000C1CFEF01F9CF90932F0180932E01CDCF92
:1005F000FE01E20FF31F8193919322503109398359
:100600002883D7CF20912C0130912D01232B41F449
:10061000209102013091030130932D0120932C0190
:1006200020910001309101012115310541F42DB7D0
:100630003EB74091040150910501241B350BE09118
:100640002C01F0912D01E217F307A0F42E1B3F0BB4
:100650002817390778F0AC014E5F5F4F2417350734
:1006600048F04E0F5F1F50932D0140932C01819352
:1006700091939FCFF0E0E0E09CCFCF93DF93009782
:10068000E9F0FC01329713821282A0912E01B09101
:100690002F01ED0130E020E01097A1F4208131819D
:1006A000820F931F20912C0130912D0128173907BB
:1006B00009F061C0F0932D01E0932C01DF91CF91FF
:1006C0000895EA01CE17DF07E8F54A815B819E01B4
:1006D00041155105B1F7E901FB83EA83499159912D
:1006E000C40FD51FEC17FD0761F48081918102963C
:1006F000840F951FE90199838883828193819B836D
:100700008A83F0E0E0E012968D919C911397009718
:10071000B9F52D913C911197CD010296820F931F4F
:1007200020912C0130912D012817390739F6309787
:1007300051F510922F0110922E01B0932D01A0932C
:100740002C01BCCFD383C28340815181840F951F7C
:10075000C817D90761F44E5F5F4F88819981480FB0
:10076000591F518340838A819B8193838283211502
:10077000310509F0B0CFF0932F01E0932E019ECF09
:10078000FD01DC01C0CF13821282D7CFB0E0A0E020
:10079000ECECF3E00C9466028C01009751F4CB0171
:1007A0000E94A1028C01C801CDB7DEB7E0E10C9434
:1007B0008202FC01E60FF71F9C0122503109E2176B
:1007C000F30708F49DC0D901CD91DC911197C617AC
:1007D000D70798F0C530D10530F3CE0104978617BE
:1007E000970708F3C61BD70B2297C193D1936D933C
:1007F0007C93CF010E943D03D6CF5B01AC1ABD0AAA
:100800004C018C0E9D1EA0912E01B0912F01512CF8
:10081000412CF12CE12C109731F580912C01909115
:100820002D018815990509F05CC04616570608F099
:1008300058C08091000190910101009741F48DB75B
:100840009EB74091040150910501841B950BE81758
:10085000F90708F055C0F0932D01E0932C01F90140
:1008600071836083A0CF8D919C91119712966C90AB
:10087000129713967C901397A815B90559F56C013A
:1008800042E0C40ED11CCA14DB0420F1AC014A19A9
:100890005B09DA011296159780F0628273825183A8
:1008A0004083D9016D937C93E114F10471F0D70179
:1008B0001396FC93EE93129776CF22968C0F9D1F82
:1008C000F90191838083F301EFCFF0932F01E0933F
:1008D0002E0169CF4816590608F42C017D01D30179
:1008E0009ACFCB010E94A1027C01009749F0AE0192
:1008F000B8010E948304C8010E943D03870153CFC1
:1009000010E000E050CFFB01DC0102C001900D922D
:1009100041505040D8F70895FB01DC0101900D9241
:100920000020E1F7089510E0CDE5D0E004C0FE011D
:100930000E949B022196CE35D107C9F7F894FFCFCC
:100940000000300180002E2D2D2E202E2D2E202E49
:0C0950002E202D202D2D2D202D2E2D00D1
:107E0000112484B714BE81FFF0D085E080938100F7
:107E100082E08093C00088E18093C10086E0809377
:107E2000C20080E18093C4008EE0C9D0259A86E02C
:107E300020E33CEF91E0309385002093840096BBD3
:107E4000B09BFECF1D9AA8958150A9F7CC24DD24C4
:107E500088248394B5E0AB2EA1E19A2EF3E0BF2EE7
:107E6000A2D0813461F49FD0082FAFD0023811F036
:107E7000013811F484E001C083E08DD089C08234E0
:107E800011F484E103C0853419F485E0A6D080C0E4
:107E9000853579F488D0E82EFF2485D0082F10E0AE
:107EA000102F00270E291F29000F111F8ED06801E7
:107EB0006FC0863521F484E090D080E0DECF843638
:107EC00009F040C070D06FD0082F6DD080E0C81688
:107ED00080E7D80618F4F601B7BEE895C0E0D1E017
:107EE00062D089930C17E1F7F0E0CF16F0E7DF06D8
:107EF00018F0F601B7BEE89568D007B600FCFDCFD4
:107F0000A601A0E0B1E02C9130E011968C91119780
:107F100090E0982F8827822B932B1296FA010C0160
:107F200087BEE89511244E5F5F4FF1E0A038BF0790
:107F300051F7F601A7BEE89507B600FCFDCF97BE46
:107F4000E89526C08437B1F42ED02DD0F82E2BD052
:107F50003CD0F601EF2C8F010F5F1F4F84911BD097
:107F6000EA94F801C1F70894C11CD11CFA94CF0C13
:107F7000D11C0EC0853739F428D08EE10CD085E9AC
:107F80000AD08FE07ACF813511F488E018D01DD067
:107F900080E101D065CF982F8091C00085FFFCCF94
:107FA0009093C60008958091C00087FFFCCF809118
:107FB000C00084FD01C0A8958091C6000895E0E648
:107FC000F0E098E1908380830895EDDF803219F02E
:107FD00088E0F5DFFFCF84E1DECF1F93182FE3DFCA
:107FE0001150E9F7F2DF1F91089580E0E8DFEE27F6
:047FF000FF270994CA
:027FFE00040479
:00000001FF
