:020000040000FA
:100000000C9482000C94AA000C94AA000C94AA00F0
:100010000C94AA000C94AA000C94AA000C94AA00B8
:100020000C94AA000C94AA000C94AA000C94AA00A8
:100030000C94AA000C94AA000C94AA000C94AA0098
:100040000C94C9060C94AA000C9497060C947106A3
:100050000C94AA000C94AA000C94AA000C94AA0078
:100060000C94AA000C94AA007063BF79E478E5C0F0
:10007000C1E6C2C3C4C5C6C741A042A1E045A3A40E
:10008000A5A64BA74D484FA8504354A9AA58E1AB89
:10009000ACE2ADAE62AFB0B161B2B3B4E365B6B7D6
:1000A000B8B9BABBBCBD6FBE000000002400270079
:1000B0002A0000000000250028002B00000000009E
:1000C000230026002900040404040404040402029A
:1000D00002020202030303030303010204081020C7
:1000E00040800102040810200102040810200000D2
:1000F00000080002010000030407000000000000E7
:100100000000130711241FBECFEFD8E0DEBFCDBF24
:1001100022E0A6ECB1E001C01D92AA3AB207E1F7D5
:1001200011E0A0E0B1E0EEEFFAE102C005900D921F
:10013000A63CB107D9F710E0C2E8D0E004C021978F
:10014000FE010E947C0BC138D107C9F70E949407B9
:100150000C947D0D0C940000AF92BF92CF92DF9271
:10016000EF92FF920F931F93CF93DF936C017B016C
:100170008B01040F151FEB015E01AE18BF08C017FD
:10018000D10759F06991D601ED91FC910190F08170
:10019000E02DC6010995892B79F7C501DF91CF9133
:1001A0001F910F91FF90EF90DF90CF90BF90AF9095
:1001B0000895FC01538D448D252F30E0842F90E06D
:1001C000821B930B541710F0CF9608950197089552
:1001D000FC01918D828D981761F0A28DAE0FBF2F1B
:1001E000B11D5D968C91928D9F5F9F73928F90E071
:1001F00008958FEF9FEF0895FC01918D828D9817E0
:1002000031F0828DE80FF11D858D90E008958FEF1C
:100210009FEF0895FC01918D228D892F90E0805CE5
:100220009F4F821B91098F739927089582EF91E068
:100230000E940A0121E0892B09F420E0822F089511
:1002400080E090E0892B29F00E94160181110C9426
:1002500000000895FC01A48DA80FB92FB11DA35A69
:10026000BF4F2C91848D90E001968F739927848FD6
:10027000A689B7892C93A089B1898C9183708064F9
:100280008C93938D848D981306C00288F389E02D9A
:1002900080818F7D80830895EF92FF920F931F934B
:1002A000CF93DF93EC0181E0888F9B8D8C8D981329
:1002B0001AC0E889F989808185FF15C09FB7F89435
:1002C000EE89FF896083E889F98980818370806481
:1002D00080839FBF81E090E0DF91CF911F910F91CC
:1002E000FF90EF900895F62E0B8D10E00F5F1F4FDB
:1002F0000F731127E02E8C8D8E110CC00FB607FCEA
:10030000FACFE889F989808185FFF5CFCE010E9477
:100310002A01F1CFEB8DEC0FFD2FF11DE35AFF4FBA
:10032000F0829FB7F8940B8FEA89FB898081806205
:10033000CFCFCF93DF93EC01888D8823B9F0AA89C2
:10034000BB89E889F9898C9185FD03C0808186FD90
:100350000DC00FB607FCF7CF8C9185FFF2CF8081DF
:1003600085FFEDCFCE010E942A01E9CFDF91CF9129
:100370000895833081F028F4813099F08230A9F01B
:1003800008958730A9F08830C9F08430B1F48091A5
:1003900080008F7D03C0809180008F7780938000E4
:1003A000089584B58F7784BD089584B58F7DFBCF84
:1003B0008091B0008F778093B00008958091B00055
:1003C0008F7DF9CFCF93DF93282F30E0F901E251F1
:1003D000FF4F8491F901E652FF4FD491F901EA539E
:1003E000FF4FC491CC23A1F081110E94B901EC2FE1
:1003F000F0E0EE0FFF1FE454FF4FA591B491EC9194
:10040000ED2381E090E009F480E0DF91CF91089541
:1004100080E090E0FACF1F93CF93DF93282F30E056
:10042000F901E251FF4F8491F901E652FF4FD49157
:10043000F901EA53FF4FC491CC23A9F0162F811183
:100440000E94B901EC2FF0E0EE0FFF1FEE54FF4FBA
:10045000A591B4918FB7F894EC91111108C0D09583
:10046000DE23DC938FBFDF91CF911F910895DE2BA8
:10047000F8CFCF93DF9390E0FC01E652FF4F249139
:100480008A539F4FFC0184918823C9F090E0880F24
:10049000991FFC01E855FF4FA591B491FC01EE5462
:1004A000FF4FC591D49161110DC09FB7F8948C9105
:1004B000209582238C938881282328839FBFDF91F6
:1004C000CF910895623051F49FB7F8943C91822FF8
:1004D000809583238C93E8812E2BEFCF8FB7F894F0
:1004E000EC912E2B2C938FBFEACF3FB7F8948091DD
:1004F000CB019091CC01A091CD01B091CE0126B558
:10050000A89B05C02F3F19F00196A11DB11D3FBF4B
:10051000BA2FA92F982F8827BC01CD01620F711D1A
:10052000811D911D42E0660F771F881F991F4A9514
:10053000D1F708952FB7F8946091C7017091C80161
:100540008091C9019091CA012FBF08951092DD01D9
:100550001092DE011092DF011092E0011092D7019B
:100560001092D8011092D9011092DA011092DC0198
:100570001092DB011092D3011092D4011092D50198
:100580001092D6010895089590E080E00895FC014E
:1005900024813581232B39F421E0FB0180818823DC
:1005A00049F020E007C0808191810E946D0D21E01B
:1005B000892BB9F7822F0895FC01808191810097E2
:1005C00011F00C941E0C08950F931F93CF93DF939B
:1005D000EC0188819981009759F02A813B81261787
:1005E000370730F081E0DF91CF911F910F9108958F
:1005F0008B016F5F7F4F0E94A70C009759F0998382
:1006000088831B830A832C813D81232B59F7FC01AE
:100610001082E8CF80E0E7CFEF92FF920F931F9315
:10062000CF93DF93EC017B018A01BA010E94E402BF
:1006300028813981811114C02115310519F0C901B2
:100640000E941E0C198218821D821C821B821A8233
:10065000CE01DF91CF911F910F91FF90EF90089500
:100660001D830C83B701C9010E94760DF1CFFC01F7
:10067000118210821382128215821482FB01019072
:100680000020E9F73197AF01461B570B0C940C0380
:10069000FB0101900020E9F73197AF01461B570B92
:1006A000DC01ED91FC910280F381E02D0994CF9360
:1006B000DF93BC0182EF91E00E944803EC0162E30A
:1006C00071E082EF91E00E9448038C0F9D1FDF9143
:1006D000CF910895AF92BF92CF92DF92EF92FF92A7
:1006E0000F931F93CF93DF93EC017C0187E0E80E1B
:1006F000F11C5701D12CC12C062F10E060E0C01670
:10070000D1064CF4F50181915F010E943902FFEF9F
:10071000CF1ADF0AF3CF8E810E940B0261E08E8137
:100720000E940B02D12CC12CB12CF70181917F01C9
:100730000E94E20181309105E1F40C2C01C0880F88
:100740000A94EAF7B82AFFEFCF1ADF0AC016D106DB
:1007500064F360E08E810E940B028B2DDF91CF91BC
:100760001F910F91FF90EF90DF90CF90BF90AF90CF
:10077000089580E0E7CFAF92BF92CF92DF92EF92E1
:10078000FF920F931F93CF93DF93EC017C0110E056
:1007900000E0A42EB12CC62ED12C8FEFE81AF80A57
:1007A0000A151B05A4F461E0F70186810E94390255
:1007B000B601002E02C0759567950A94E2F7617044
:1007C000F70186810E940B020F5F1F4FE6CF60E0AA
:1007D0008E810E940B0261E08E810E940B0260E01C
:1007E0008E810E940B028BE891E00197F1F7DF9177
:1007F000CF911F910F91FF90EF90DF90CF90BF901E
:10080000AF9008951F93CF93DF93EC01162F642FC1
:100810008C810E940B028D818F3F19F060E00E9455
:100820000B028F8548E084FD0CC0612F70E084E0EE
:10083000759567958A95E1F744E0CE010E94BB0368
:1008400044E0612FCE01DF91CF911F910C94BB0347
:1008500040E00C940204CF93DF93CDB7DEB7289726
:100860000FB6F894DEBF0FBECDBF98E0ECE0F1E02C
:10087000DE01119601900D929A95E1F79091A202F6
:10088000891710F08FEF890F90E0880F991F21E0F2
:1008900030E02C0F3D1F820F931FFC0160816068C8
:1008A0008FE892E028960FB6F894DEBF0FBECDBF5A
:1008B000DF91CF910C942804CF93DF93823029F4F9
:1008C00090919E02986090939E028093A202109253
:1008D000A3028BE39DE00197F1F760E08091930222
:1008E0000E940B0260E0809195020E940B028091B1
:1008F00094028F3F19F060E00E940B0260919E020B
:1009000064FD45C044E063E08FE892E00E94BB03D1
:10091000CBE4D6E4CE010197F1F744E063E08FE841
:1009200092E00E94BB032197F1F744E063E08FE877
:1009300092E00E94BB0383E592E00197F1F744E067
:1009400062E08FE892E00E94BB0360919E026062C9
:100950008FE892E00E94280484E080939F026CE07C
:100960008FE892E00E94280461E08FE892E00E9404
:1009700028048BE39FE10197F1F782E08093A002C6
:1009800066E08FE892E0DF91CF910C9428046062DA
:100990008FE892E00E9428048BE496E40197F1F737
:1009A00060919E0260628FE892E00E94280483E5D5
:1009B00092E00197F1F760919E0260628FE892E009
:1009C0000E942804C2CF0F931F93CF93DF93EC01B3
:1009D000162F8D898130E1F460E08C810E940B023A
:1009E0008D818F3F19F061E00E940B028F8584FF9B
:1009F00029C068E0CE010E946A038F7798EF980FB4
:100A00009C3030F4885C682F6068CE010E94280416
:100A10006E8967FD39C080E8810F803400F1605332
:100A200041E0CE010E94020441E0612FCE010E940C
:100A300002048FEF8E8B81E090E0DF91CF911F91C8
:100A40000F91089564E0CE010E946A03082F029579
:100A5000007F64E0CE010E946A03802BCECF1F731B
:100A600061110BC041E062EA113001F3E12FF0E0C7
:100A7000E859FF4F649141E0D9CF6130B9F741E0C7
:100A800065EB113199F7D2CF80E3810F823090F27C
:100A900041E0612FCE010E940204CDCFCF92DF92C0
:100AA000EF92FF920F931F93CF93DF93CDB7DEB7F3
:100AB000AD970FB6F894DEBF0FBECDBF8C016A01B3
:100AC0007B0165E371E00E94C7028823E9F080E0C2
:100AD0000E942B0481E0C816D104E104F10409F05E
:100AE000D8C06AE371E08FE892E00E9448038AE38D
:100AF00091E00E94570381E00E942B046AE671E0B6
:100B00008FE892E00E94480363E771E0C8010E9409
:100B1000C702811108C068E771E0C8010E94C702DE
:100B2000882309F4A7C080E00E942B0463E771E0EA
:100B3000C8010E94C702882351F06DE771E08FE879
:100B400092E00E9448038BE891E00E94570368E717
:100B500071E0C8010E94C702882351F06DE771E07F
:100B60008FE892E00E9448038BE891E00E945703CF
:100B700081E00E942B0480E1C81687E2D806E104D8
:100B8000F10408F0A3C01BA21AA21DA21CA21FA25E
:100B90001EA22AE08E010F5F1F4FA801C701B601F8
:100BA0000E94130BF80101900020E9F73197AF0183
:100BB000401B510BB801CE0182960E940C0319A66E
:100BC00018A61BA61AA61DA61CA66AA17BA16115C4
:100BD000710531F04EA15FA1CE0188960E940C03F1
:100BE000ECA4FDA489E0E80EF11CB701CE018896C3
:100BF0000E94E40228A539A5882309F45AC08CA5CF
:100C00009DA566E971E0820F931F0E94760DFDA6F7
:100C1000ECA61A8219821C821B821E821D8268A584
:100C200079A56115710529F04CA55DA5C8010E9443
:100C30000C03CE0188960E94DC02CE0182960E94AF
:100C4000DC024D815E8169817A818FE892E00E94A9
:100C5000AC004D815E8169817A8182EF91E00E94D2
:100C6000AC0062E371E082EF91E00E944803C801AA
:100C70000E94DC02AD960FB6F894DEBF0FBECDBF6A
:100C8000DF91CF911F910F91FF90EF90DF90CF9068
:100C9000089582E0C816D104E104F10409F02BCFD5
:100CA0006BE471E08FE892E00E9448038BE591E0ED
:100CB00020CF2115310519F0C9010E941E0C19A67B
:100CC00018A61DA61CA61BA61AA6A3CF60EA71E053
:100CD0008FE892E00E9448038BEA91E00E9457035C
:100CE000C9CF1F920F920FB60F9211242F933F93EB
:100CF0004F935F936F937F938F939F93AF93BF9324
:100D0000EF93FF9382EF91E00E942A01FF91EF9110
:100D1000BF91AF919F918F917F916F915F914F9113
:100D20003F912F910F900FBE0F901F9018951F921B
:100D30000F920FB60F9211242F938F939F93EF93DF
:100D4000FF93E0910202F09103028081E09108029A
:100D5000F091090282FD1BC0908180910B028F5F90
:100D60008F7320910C02821741F0E0910B02F0E0AA
:100D7000EE50FE4F958F80930B02FF91EF919F9164
:100D80008F912F910F900FBE0F901F90189580811B
:100D9000F4CF1F920F920FB60F9211242F933F930F
:100DA0008F939F93AF93BF938091C7019091C80198
:100DB000A091C901B091CA013091C60123E0230F6F
:100DC0002D3758F50196A11DB11D2093C6018093C2
:100DD000C7019093C801A093C901B093CA01809143
:100DE000CB019091CC01A091CD01B091CE010196A3
:100DF000A11DB11D8093CB019093CC01A093CD0197
:100E0000B093CE01BF91AF919F918F913F912F9160
:100E10000F900FBE0F901F90189526E8230F029693
:100E2000A11DB11DD2CF1092F5011092F40188EEF0
:100E300093E0A0E0B0E08093F6019093F701A093D7
:100E4000F801B093F90188E191E09093F301809368
:100E5000F20185EC90E09093FF018093FE0184EC19
:100E600090E0909301028093000280EC90E09093D8
:100E700003028093020281EC90E09093050280933C
:100E8000040282EC90E0909307028093060286ECC5
:100E900090E0909309028093080210920B02109246
:100EA0000C0210920D0210920E02109292021092F9
:100EB00091028AE291E09093900280938F0287E002
:100EC000809393028FEF8093940286E08093950243
:100ED00085E08093960284E08093970283E080937C
:100EE000980282E08093990210929A0210929B02DB
:100EF00010929C0210929D0261E087E00E943902EC
:100F0000809194028F3F19F061E00E94390261E004
:100F1000809195020E94390210929E028FEF809379
:100F2000A50281E00C945C04CF93DF9300D000D045
:100F300000D0CDB7DEB7789484B5826084BD84B527
:100F4000816084BD85B5826085BD85B5816085BDC4
:100F500080916E00816080936E001092810080917C
:100F60008100826080938100809181008160809304
:100F70008100809180008160809380008091B10029
:100F800084608093B1008091B00081608093B00054
:100F900080917A00846080937A0080917A008260E8
:100FA00080937A0080917A00816080937A008091AA
:100FB0007A00806880937A001092C10062E088E035
:100FC0000E94390262E089E00E94390262E08AE010
:100FD0000E94390262E08BE00E943902E091020235
:100FE000F091030282E08083E091FE01F091FF0125
:100FF0001082E0910002F091010280E18083109262
:101000000A02E0910602F091070286E08083E091F7
:101010000402F0910502808180618083E0910402E6
:10102000F0910502808188608083E0910402F09154
:101030000502808180688083E0910402F0910502BE
:1010400080818F7D80830E9475024B015C0134E6B4
:10105000C32ED12CE12CF12C0E947502681979095C
:101060008A099B09683E734081059105A8F321E038
:10107000C21AD108E108F10888EE880E83E0981EB4
:10108000A11CB11CC114D104E104F10429F784EBC3
:1010900091E00E94570382E00E945C040E949A0241
:1010A0006093EE017093EF018093F0019093F10152
:1010B00080E0C82E80E0D82EAA24AA94BA2C11E091
:1010C00022E0E22EF12C0E949A024090EE01509014
:1010D000EF016090F0017090F101641975098609C3
:1010E0009709613971408105910568F088E00E9497
:1010F000E20121E030E0892B11F030E020E0309374
:10110000ED012093EC0189E00E94E20121E030E052
:10111000892B11F030E020E03093EB012093EA01BD
:101120008AE00E94E2014C019093E9018093E8017A
:101130008BE00E94E2013C019093E7018093E6017D
:101140008091040190910501019709F0ADC0809153
:10115000E50120910201309103012130310509F0B0
:1011600078C0811114C065E371E0CE0101960E9440
:10117000370341E050E060E070E0CE0101960E944C
:101180004E05CE0101960E94DC021093E50180918C
:10119000EC019091ED010197B1F48091E301909100
:1011A000E401019781F0F0920301E09202011092B4
:1011B000E5010E949A026093EE017093EF01809323
:1011C000F0019093F1018091EA019091EB01019778
:1011D000A1F48091E1019091E201019771F0F09208
:1011E0000501E09204018091020190910301909326
:1011F0000101809300011092E5018091EC01909132
:10120000ED019093E4018093E3018091EA019091D4
:10121000EB019093E2018093E1018091E8019091CC
:10122000E9019093D2018093D1018091E6019091E0
:10123000E7019093D0018093CF01C114D10409F448
:1012400042CF0E941601882309F43DCF0E9400007E
:101250003ACF811114C065E371E0CE0101960E947E
:10126000370342E050E060E070E0CE0101960E945A
:101270004E05CE0101960E94DC021093E50180919B
:10128000EC019091ED018130910509F09CCF209106
:10129000E3013091E4012130310509F494CF9093BA
:1012A00003018093020183CF80910001909101019D
:1012B0000197A1F52090DD013090DE014090DF0123
:1012C0005090E001211431044104510409F0B1C0EF
:1012D0008091E501811113C063E771E0CE010196B1
:1012E0000E94370340E050E0BA01CE0101960E940F
:1012F0004E05CE0101960E94DC021093E50120917B
:10130000E8013091E9018091E6019091E701211512
:10131000310509F472C0892B09F483C08091000162
:10132000909101010297A1F54090DD015090DE01FE
:101330006090DF017090E001411451046104710478
:1013400009F0FEC08091E501811113C068E771E0EA
:10135000CE0101960E94370340E050E0BA01CE0171
:1013600001960E944E05CE0101960E94DC02109368
:10137000E5012091E8013091E9018091E601909129
:10138000E7012115310509F4BFC0892B09F4D0C04C
:101390008091EC019091ED0181309105E9F420916B
:1013A000E3013091E40121303105B1F0B092010147
:1013B000A092000190930501809304010E94A6026F
:1013C0001092E5010E949A026093EE017093EF0182
:1013D0008093F0019093F1018091EA019091EB01EB
:1013E000019709F00ACF8091E1019091E201019704
:1013F00009F403CF0E94A602FECE8130910571F45C
:101400009093DC018093DB010E949A026093DD01DE
:101410007093DE018093DF019093E0011092E5016B
:101420007DCF21303105D1F7F092DC01E092DB0174
:10143000EBCF8091D7019091D801A091D901B091C3
:10144000DA010097A105B10509F051C01092E5013C
:101450000E949A0262197309840995096093D30165
:101460007093D4018093D5019093D6018114910497
:1014700091F56A94672881F48091DB019091DC01F9
:10148000029751F40E949A026093D7017093D80199
:101490008093D9019093DA018091E50181113ECFCB
:1014A0004090D3015090D4016090D5017090D60146
:1014B00063E771E0CE0101960E943703B301A201F8
:1014C000CE0101960E944E05CE0101960E94DC02DB
:1014D0001093E50123CF8A948928F1F66728E1F675
:1014E0008091DB019091DC010197B1F6CBCF82199D
:1014F0009309A409B5098093D3019093D401A093D3
:10150000D501B093D601C8CF8130910571F4909385
:10151000DC018093DB010E949A026093DD017093ED
:10152000DE018093DF019093E0011092E50130CF5E
:1015300021303105D1F7F092DC01E092DB01EBCFF5
:101540008091D7019091D801A091D901B091DA0191
:101550000097A105B10509F059C01092E5010E945C
:101560009A0264197509860997096093D3017093EB
:10157000D4018093D5019093D6018091DB019091A5
:10158000DC0181309105A9F58091E8019091E90194
:10159000892B81F48091D1019091D201892B51F056
:1015A0000E949A026093D7017093D8018093D90169
:1015B0009093DA018091E5018111EACE4090D30148
:1015C0005090D4016090D5017090D60168E771E029
:1015D000CE0101960E943703B301A201CE0101960C
:1015E0000E944E05CE0101960E94DC021093E50197
:1015F000CFCE0297F9F68091E6019091E701892B11
:10160000C9F68091CF019091D001C8CF8419950976
:10161000A609B7098093D3019093D401A093D50173
:10162000B093D601C7CFBB27FA01A62F6217710569
:1016300081059105330B30FB66F0AA27660F771FF3
:10164000881F991FAA1FA21710F0A21B639538507C
:10165000A9F7A05DAA3308F0A95DA19336F7B111EF
:10166000B1931082CA010C94350BDC01FC01672F89
:1016700071917723E1F7329704C07C916D93708369
:101680006291AE17BF07C8F308952F923F924F9211
:101690005F926F927F928F929F92AF92BF92CF9202
:1016A000DF92EF92FF920F931F93CF93DF93CDB70B
:1016B000DEB7CA1BDB0B0FB6F894DEBF0FBECDBF83
:1016C00009942A88398848885F846E847D848C8454
:1016D0009B84AA84B984C884DF80EE80FD800C815D
:1016E0001B81AA81B981CE0FD11D0FB6F894DEBF40
:1016F0000FBECDBFED010895EE0FFF1F0590F491D1
:10170000E02D09940F931F93CF93DF9382309105BF
:1017100010F482E090E0E091A802F091A90230E09C
:1017200020E0B0E0A0E0309799F42115310509F4EC
:101730004AC0281B390B24303105D8F58A819B819A
:101740006115710589F1FB0193838283FE0111C04C
:10175000408151810281138148175907E0F04817F1
:10176000590799F4109761F012960C9312971396FB
:101770001C933296CF01DF91CF911F910F91089565
:101780000093A8021093A902F4CF2115310551F05E
:101790004217530738F0A901DB019A01BD01DF01AF
:1017A000F801C1CFEF01F9CF9093A9028093A8026D
:1017B000CDCFFE01E20FF31F8193919322503109A7
:1017C00039832883D7CF2091A6023091A702232BFB
:1017D00041F420910801309109013093A702209330
:1017E000A60220910601309107012115310541F42F
:1017F0002DB73EB740910A0150910B01241B350BC8
:10180000E091A602F091A702E217F307A0F42E1BC5
:101810003F0B2817390778F0AC014E5F5F4F241754
:10182000350748F04E0F5F1F5093A7024093A60262
:10183000819391939FCFF0E0E0E09CCFCF93DF9333
:101840000097E9F0FC01329713821282A091A8025E
:10185000B091A902ED0130E020E01097A1F42081C1
:101860003181820F931F2091A6023091A702281781
:10187000390709F061C0F093A702E093A602DF9157
:10188000CF910895EA01CE17DF07E8F54A815B8121
:101890009E0141155105B1F7E901FB83EA834991A6
:1018A0005991C40FD51FEC17FD0761F48081918118
:1018B0000296840F951FE901998388838281938121
:1018C0009B838A83F0E0E0E012968D919C911397C0
:1018D0000097B9F52D913C911197CD010296820F99
:1018E000931F2091A6023091A7022817390739F6D5
:1018F000309751F51092A9021092A802B093A70256
:10190000A093A602BCCFD383C28340815181840FB0
:10191000951FC817D90761F44E5F5F4F8881998181
:10192000480F591F518340838A819B81938382830F
:101930002115310509F0B0CFF093A902E093A80278
:101940009ECFFD01DC01C0CF13821282D7CFB0E061
:10195000A0E0EDEAFCE00C94470B8C01009751F4F9
:10196000CB010E94820B8C01C801CDB7DEB7E0E14C
:101970000C94630BFC01E60FF71F9C012250310908
:10198000E217F30708F49DC0D901CD91DC911197BE
:10199000C617D70798F0C530D10530F3CE010497AC
:1019A0008617970708F3C61BD70B2297C193D193CD
:1019B0006D937C93CF010E941E0CD6CF5B01AC1AB5
:1019C000BD0A4C018C0E9D1EA091A802B091A902E7
:1019D000512C412CF12CE12C109731F58091A6026D
:1019E0009091A7028815990509F05CC04616570624
:1019F00008F058C08091060190910701009741F4CA
:101A00008DB79EB740910A0150910B01841B950B35
:101A1000E817F90708F055C0F093A702E093A60273
:101A2000F90171836083A0CF8D919C9111971296DB
:101A30006C90129713967C901397A815B90559F5D9
:101A40006C0142E0C40ED11CCA14DB0420F1AC01CD
:101A50004A195B09DA011296159780F06282738247
:101A600051834083D9016D937C93E114F10471F0AB
:101A7000D7011396FC93EE93129776CF22968C0F94
:101A80009D1FF90191838083F301EFCFF093A902A9
:101A9000E093A80269CF4816590608F42C017D018D
:101AA000D3019ACFCB010E94820B7C01009749F0B1
:101AB000AE01B8010E94640DC8010E941E0C87018E
:101AC00053CF10E000E050CFFB01DC0102C00190D9
:101AD0000D9241505040D8F70895FB01DC018D91E3
:101AE000019080190110D9F3990B0895FB01DC01D5
:101AF00001900D920020E1F70895F894FFCFFFFFC9
:101B0000010001000000AA02800000004000140053
:101B10005400000000004C01AC00D90099010A01FA
:101B2000E800FC0000000000E304AC00C402C302B3
:101B30000D0A004D61696E00D098D09DD0A2D0955D
:101B4000D0A0D092D090D09B00D09CD090D0AFD0DD
:101B5000A2D09DD098D09A2000D09CD090D0AFD069
:101B6000A2D09DD098D09A00202020202020202094
:101B70000045787031004578703200D092D0A0D006
:101B800095D09CD0AF20202000D092D0A0D095D06E
:101B90009CD0AF00D0BCD1812020202020002D2D52
:101BA0002D2DD0BCD1812020002D2D2D2DD0BCD1AC
:101BB00081005363686F6F6C5F76322E3120696EDF
:041BC0006974000044
:107E0000112484B714BE81FFF0D085E080938100F7
:107E100082E08093C00088E18093C10086E0809377
:107E2000C20080E18093C4008EE0C9D0259A86E02C
:107E300020E33CEF91E0309385002093840096BBD3
:107E4000B09BFECF1D9AA8958150A9F7CC24DD24C4
:107E500088248394B5E0AB2EA1E19A2EF3E0BF2EE7
:107E6000A2D0813461F49FD0082FAFD0023811F036
:107E7000013811F484E001C083E08DD089C08234E0
:107E800011F484E103C0853419F485E0A6D080C0E4
:107E9000853579F488D0E82EFF2485D0082F10E0AE
:107EA000102F00270E291F29000F111F8ED06801E7
:107EB0006FC0863521F484E090D080E0DECF843638
:107EC00009F040C070D06FD0082F6DD080E0C81688
:107ED00080E7D80618F4F601B7BEE895C0E0D1E017
:107EE00062D089930C17E1F7F0E0CF16F0E7DF06D8
:107EF00018F0F601B7BEE89568D007B600FCFDCFD4
:107F0000A601A0E0B1E02C9130E011968C91119780
:107F100090E0982F8827822B932B1296FA010C0160
:107F200087BEE89511244E5F5F4FF1E0A038BF0790
:107F300051F7F601A7BEE89507B600FCFDCF97BE46
:107F4000E89526C08437B1F42ED02DD0F82E2BD052
:107F50003CD0F601EF2C8F010F5F1F4F84911BD097
:107F6000EA94F801C1F70894C11CD11CFA94CF0C13
:107F7000D11C0EC0853739F428D08EE10CD085E9AC
:107F80000AD08FE07ACF813511F488E018D01DD067
:107F900080E101D065CF982F8091C00085FFFCCF94
:107FA0009093C60008958091C00087FFFCCF809118
:107FB000C00084FD01C0A8958091C6000895E0E648
:107FC000F0E098E1908380830895EDDF803219F02E
:107FD00088E0F5DFFFCF84E1DECF1F93182FE3DFCA
:107FE0001150E9F7F2DF1F91089580E0E8DFEE27F6
:047FF000FF270994CA
:027FFE00040479
:00000001FF
